:02000000A52831
:10000800803120007F08FD00911E3928230019083F
:10001800F60076082000BD002808013EF6000030F2
:10002800293DF70003307605BE0000307705BF0094
:1000380027083F06031D222826083E0603193028F4
:100048003D08F6002808203E8600870176088100D2
:100058003F08A9003E08A80023009D1C37281D1250
:100068009D1834281D16200091120B1DA128B401DB
:10007800B5013C0803197E283A08003E8400823006
:100088000318013E85000008F6007608BB002C081E
:100098002D04031D67283808003E840081300318AA
:1000A800013E85000008F6007608B9000130F60028
:1000B8007608B8072508AD002408AC00380A031DE7
:1000C8006B28BC016B280130AC020030AD3B360810
:1000D800F600F7017608B0077708B13D3708F60053
:1000E800F7017608B2077708B33D33083007F60002
:1000F8007608BA003B08F600F7017608F0007708A2
:10010800F1003908F800F9017808F2007908F300DD
:1001180096247008FA007108FB000730FC007B0D7C
:10012800FB0CFA0CFC0B93287A082000B4007B081F
:10013800B5003408250091000B117D082000FF0050
:100148000900A62820308400003085001D30BB241B
:10015800B1308400843085004B3086000030870041
:080168000A30C1242000A92B7C
:100200007F347C3479347734743471346F346D34A2
:100210006A3468346634643461345F345D345B342A
:100220005934573455345434523450344E344D3498
:100230004B344934483446344534433442344034F2
:100240003F343E343C343B343A343834373436343B
:10025000353434343334323430342F342E342D3476
:100260002C342B342A342A342934283427342634A5
:1002700025342434243423342234213421342034CA
:100280001F341F341E341D341D341C341B341B34E6
:100290001A341A34193419341834173417341634FC
:1002A000163415341534153414341434133413340B
:1002B0001234123412341134113410341034103416
:1002C0000F340F340F340E340E340E340D340D341D
:1002D0000D340D340C340C340C340B340B340B341F
:1002E0000B340A340A340A340A340A34093409341F
:1002F000093409340934083408340834083408341B
:100300000734073407340734073407340634063417
:100310000634063406340634063405340534053410
:100320000534053405340534053405340434043407
:1003300004340434043404340434043404340434FD
:1003400003340334033403340334033403340334F5
:1003500003340334033403340334023402340234E8
:1003600002340234023402340234023402340234DD
:1003700002340234023402340234023402340234CD
:1003800001340134013401340134013401340134C5
:1003900001340134013401340134013401340134B5
:1003A00001340134013401340134013401340134A5
:1003B0000134013401340134013401340134013495
:1003C000003400340034003400340034003400348D
:1003D000003400340034003400340034003400347D
:1003E000003400340034003400340034003400346D
:1003F000003400340034003400340034003400345D
:10040000003402340434063408340A340C340E3414
:10041000103412341434163418341A341C341E3484
:10042000203422342434263428342A342C342E34F4
:10043000303432343434363438343A343C343E3464
:10044000403442344434463448344A344C344E34D4
:10045000503452345434563458345A345C345E3444
:10046000603462346434663468346A346C346E34B4
:10047000703472347434763478347A347C347E3424
:10048000803482348434863488348A348C348E3494
:10049000903492349434963498349A349C349E3404
:1004A000A034A234A434A634A834AA34AC34AE3474
:1004B000B034B234B434B634B834BA34BC34BE34E4
:1004C000C034C234C434C634C834CA34CC34CE3454
:1004D000D034D234D434D634D834DA34DC34DE34C4
:1004E000E034E234E434E634E834EA34EC34EE3434
:1004F000F034F234F434F634F834FA34FC34FE34A4
:10050000FC34FA34F834F634F434F234F034EE34A3
:10051000EC34EA34E834E634E434E234E034DE3413
:10052000DC34DA34D834D634D434D234D034CE3483
:10053000CC34CA34C834C634C434C234C034BE34F3
:10054000BC34BA34B834B634B434B234B034AE3463
:10055000AC34AA34A834A634A434A234A0349E34D3
:100560009C349A34983496349434923490348E3443
:100570008C348A34883486348434823480347E34B3
:100580007C347A34783476347434723470346E3423
:100590006C346A34683466346434623460345E3493
:1005A0005C345A34583456345434523450344E3403
:1005B0004C344A34483446344434423440343E3473
:1005C0003C343A34383436343434323430342E34E3
:1005D0002C342A34283426342434223420341E3453
:1005E0001C341A34183416341434123410340E34C3
:1005F0000C340A3408340634043402340034003431
:100600008F349734A034A934B434BE34C934D534CB
:10061000E234EF34FE340E341E342F34403453347D
:1006200068347D349334AB34C534DF34FC341B344C
:100630003B345D348034A634CF34F9342734573416
:100640008A34BF34F83435347534B93401344D3418
:100650009E34F3344E34AE3414347F34F1346A347F
:10066000EA34723402349A343C34E6349C345C34D8
:100670002834FE34E234D434D534E434043435340C
:100680007734CD343834B7344F34FD34863468345D
:10069000AA347F3408346934EE349B3470346F34B8
:1006A0009D34FA348B3453345434003400340034E1
:1006B0000034003400340034003400340034013499
:1006C0000134013401340134013401340134013482
:1006D000013401340134023402340234023402346D
:1006E0000234023403340334033403340334043453
:1006F0000434043405340534053405340634063432
:100700000734073407340834083409340A340A3407
:100710000B340B340C340D340E340E340F341034CF
:1007200011341234143415341634173419341A347D
:100730001C341D341F3421342334253428342A3406
:100740002C342F343234353438343B343F34433452
:10075000473470302100990022008C0120302100A4
:100760008C0022008C0102302000C0000030C1004B
:100770000330C2000030C3002230C8004808C40063
:10078000362423008C0122001D100C30250093001C
:1007900020009C0125009101920120009A01FF3068
:1007A0009B001C1521009501200095018B120B1157
:1007B0008B168B17AE01AF01AA01AB01BC01B801CA
:1007C000AC01AD01B001B101B201B3012C30A40004
:1007D0000130A5007B242000400841040319EA2BC6
:1007E0000C2420004108CA004008C90000304A0219
:1007F000613003194902031CEA2B00304A026B30B6
:10080000031949020318EA2B49089F3E4B3E860014
:10081000870101085D24EA2B200029082706031D13
:10082000132C28082606031D1A2CFF30C000FF30A9
:10083000C10008002608203E860087010108C2008A
:10084000C3014208C4004308C5002608013EC20097
:100850000030273DC30003304205A60000304305A9
:10086000A7004508C1004408C000080022009D13ED
:100870001D110230200040064104031D412C2200BE
:100880009D170330200042064304031D492C22001B
:100890001D15243023009E0090309D002000440848
:1008A00023009B0020009112210091160B172000BD
:1008B000A601A701A801A90108002000C100410864
:1008C000553E840083300318013E85000008C000B7
:1008D0004008B6004108003E840083300318013E02
:1008E00085000008C0004008B700B801AC01AD01A8
:1008F000BC01BC0A080020002609C2002709C30069
:10090000C20A0319C30A28084207C4002908433D44
:10091000C5004408043EC6000030453DC700033012
:100920004605C00000304705C1000800F401F5018C
:10093000701C9E2C7208F4077308F53D0130F235E7
:10094000F30D890B9F2C0130F136F00C890BA42C90
:1009500070087104031D982C7508F1007408F000EC
:100960000800423444344634473449344B344D341F
:100970004E3450345234640080010131890BBC2C58
:0E0980000034FE0012001E00FE0BC22C0034DC
:020000040001F9
:04000E00A4C9FFDDA5
:00000001FF
