:10000000803102288731CB2FF0012000111E0928F2
:100010000A28112823009E1E0E280F281128F001FF
:10002000F00A700808001C285530890B15280000BC
:100030002030F0020030F13B003071022030031913
:10004000700203182428252814282A280032003298
:10005000003200320130F0020030F13B700A031D23
:100060003528710A031D3528362826280800FA008D
:100070000A307A0203183D283E2859287A08F600EB
:10008000F7017608F0007708F1000930F20000303F
:10009000F3008C31DA2480317430F8002030F9001C
:1000A0007008780786007108793D8700010C0139D6
:1000B0005A2800300800FC000A307C02031861282E
:1000C00062287F287C08F800F9017808F000790898
:1000D000F1000930F2000030F3008C31DA24803175
:1000E0007230FA002030FB0070087A078600710831
:1000F0007B3D8700403FF600413FF7008128F60135
:10010000F70108002000A0012008FA00FB017A088E
:10011000F0007B08F1001130F2000030F3008C3168
:10012000DA248031C630FC002030FD0070087C07E6
:10013000F60071087D3DF7008031FE2080310130EE
:10014000FA007A082000A0070A302002031CA92820
:10015000AA2884280800200049080319B028B128DB
:10016000B6288B31C42380312000C901CA01CA0AD4
:100170008C31A4248031003A031DBF28C028C22836
:100180000030D3288C31112480318B3159238031B8
:100190002000B4003408CA008131542180318B31F1
:1001A0005B23803101300800FA000A307A0203181C
:1001B000DA28DB28FC287A08F600F7017608F00038
:1001C0007708F1001130F2000030F3008C31DA24AE
:1001D0008031C830F8002030F900700878078600B8
:1001E0007108793D8700023001060319F828FA28C2
:1001F0000130FB280030FD2800300800760886001A
:1002000077088700423102300106031D08290929B9
:10021000272976088600770887004A310130810750
:1002200041310318810A76088600770887004A3131
:1002300016000104031D1D291E29272976088600A2
:10024000770887004A31FF30C03FFF30C13F0800C8
:100250007308FA007208F9007108F8007008F700D6
:100260004729790884007A0885000008F600760896
:10027000FB000130F9070030FA3D77088600780866
:1002800087007B0881000130F7070030F83D01301E
:10029000F4020030F53B740A031D5229750A031D50
:1002A00052295329312908006C30FA002030FB0014
:1002B000BD30F8002030F9007B087902031D622967
:1002C0007A087802031865296629672980297B083E
:1002D000F7007A08F6008B317A2381310930FA076A
:1002E0000030FB3DBD30F8002030F9007B0879027A
:1002F000031D7C297A08780203187F298029672941
:1003000008002000200886002108870041310108EC
:1003100080315B20813176082000A2007708A3009D
:10032000A401A50120088600210887004531220884
:10033000C03F2308C13F2408C23F2508C33F20080F
:100340008600210887004531043081354131810D17
:100350004131810D4131810D7D31890BA529080085
:10036000FA007A08F600F7017608F0007708F10045
:100370001130F2000030F3008C31DA248131C630C4
:10038000F8002030F90070087807FB007108793D0B
:10039000FC007B0886007C088700423181017B08D5
:1003A000053EF60000307C3DF700760886007708B1
:1003B00087000030C03FC13FC23FC33F7B0886007B
:1003C0007C0887004A310030C03FC13F7B0886006F
:1003D0007C0887004C310030C03FC13F7B0886005D
:1003E0007C088700413101088B3155238131080099
:1003F00020002008860021088700423101080319E7
:10040000022A032A392A200886002108870043315E
:10041000403FA200413FA300A336A20CA336A20C8A
:1004200020088600210887004331220881024131DB
:100430002308813B7F312008860021088700413155
:10044000010880315B20813176082000A200770806
:10045000A300A336A20CA336A20C20088600210814
:10046000870043312208810741312308813D7F31D4
:100470004C2A20088600210887004131010880317C
:100480005B2081312000200886002108870043314D
:100490007608C03F7708C13F080005302000A7005C
:1004A0002708A8002608F1002508F0008B31E12379
:1004B0008231003A031D5D2A5E2A6A2A0030A12A91
:1004C00001302000A8022808031D672A682A6A2A2A
:1004D000FC30A12A20002608FD002508FC008231FE
:1004E000FC228231003A031D762A772A602A2000F6
:1004F00025088600260887004631403F3D02F0006F
:10050000413F3E3BF1008C318A2482310030710240
:10051000653003197002031C8E2A8F2A982A200046
:100520002608F1002508F0008B31812382315E2AF4
:1005300020002608F1002508F0008B318823823145
:100540005E2A0800003419340D3459340E34203436
:10055000003400340034013439340D3479340E342D
:100560002034003400340034023459340D349934CA
:100570000E342034003400340034033479340D3424
:10058000B9340E3420340034003400340434993447
:100590000D34D9340E3420340034003400340534A2
:1005A000B9340D34F9340E342034003400340034BE
:1005B0000634D9340D3419340F3420340034003467
:1005C00000340734F9340D3439340F342034003416
:1005D00000340034083419340E3459340F342034C4
:1005E0000034003400340934F9340C3439340E3416
:1005F00020340034003400342000A40121001D0800
:100600002000A0002008A10021001E082000A0005A
:100610002008A2008B316323823100308B1B013014
:100620002000A3007D08F1007C08F0008C314824F4
:1006300082317C0886007D08870001082000A00028
:100640002008C7007C0886007D0887004531010826
:10065000A0002008C600BD01BE0148108C315C24FA
:1006600082312000A0002008C500BD01BE01C810D5
:100670008B138331612382312000230C031C8B13E5
:1006800003188B178C313524823121009D18492B9A
:100690004A2B452B2000481C4E2B4F2B382B210872
:1006A00021009D002000220821009E002000C81C7F
:1006B0005A2B5B2B5F2BFA30A0002008A4002408E3
:1006C000080021001C08FB001B08FA002000481C41
:1006D0006A2B6B2B6C2BC92B46080319702B712BC3
:1006E000C42B7E2B59088A0058080A0083318F2BAF
:1006F00057088A0056080A0083318F2B46080139B3
:10070000F600F7017708003A0319872B8F2B76083C
:10071000003A0319722B013A0319782B8F2B200012
:100720004708F600F7017608F0007708F100093075
:10073000F2000030F3008C31DA2483317130F8009C
:100740002030F9007008780786007108793D87002D
:100750000108200046060319AE2BAF2BC12B461C07
:10076000B22BB32BBD2B0030F6000430F7007A0813
:100770007602FA007B08773BFB007A08BD077B080E
:10078000BE3D0130C602C92B7A08BD077B08BE3DBD
:10079000481408008B31F12383318031AB20833141
:1007A000003A0319D42BD52BFE2B2000B6013608B6
:1007B0008031D4208331003A0319DF2BE02BF32B57
:1007C0001E302000BF000030C00080310420833183
:1007D000003A0319EC2BED2BF32B20003608613E79
:1007E0008B319623833101302000B5003508B607E0
:1007F0000A303602031CFD2BFE2BD72B20003F08AE
:1008000040040319042C052C0A2C0130BF020030CF
:10081000C03B0C2CBF01C001C101C2014008420213
:10082000031D142C3F0841020318172C182C1B2CF5
:1008300022008C151D2C22008C116430F000003039
:10084000F10080311320833101302000C1070030D6
:10085000C23D003042021E3003194102031C312CFC
:10086000322C0E2CCD2B803102282000B000300815
:10087000AC00AD012C08F0002D08F1001130F200A1
:100880000030F3008C31DA248431C6302000AE0011
:100890002030AF0070082E07B10071082F3DB20064
:1008A0003108860032088700413101088031372045
:1008B0008431003A03195D2C5E2CA42C20003108F1
:1008C000860032088700413101088B31572384317B
:1008D000003A03196C2C6D2CA42C20003208A500C2
:1008E0003108A4008C317224843120003208F100D8
:1008F0003108F0008531FE25843120003108860062
:1009000032088700423103300102031C882C892CF5
:10091000912C310886003208870001088131B0210E
:10092000843120003208A7003108A6003108860073
:1009300032088700423101354C3E86008701413F35
:100940008A00403F0A008431080020002608860003
:10095000270887004A31403FA800413FA9000030E6
:1009600029020930031928020318B72CB82CC02C0F
:100970002708A1002608A000813181218431C72CDD
:100980002708F1002608F00086318B2684312000EC
:1009900026088600270887004A3101308107413147
:1009A0000318810A26088600270887004A31403F3D
:1009B000A800413FA9000030290210300319280285
:1009C000031CE32CE42C152D26088600270887003D
:1009D0004531403FA800413FA900423FAA00433FA4
:1009E000AB000430AB36AA0CA90CA80C890BF22C76
:1009F000260886002708870043312808C03F2908B9
:100A0000C13F2608023EA8000030273DA900280863
:100A10008600290887000130810026088600270803
:100A200087004A310030C03FC13F08002000AD00C0
:100A30002D08A900AA012908F0002A08F1000930B0
:100A4000F2000030F3008C31DA2485316C30200064
:100A5000AB002030AC0070082B07AF0071082C3DB4
:100A6000B0003008A6002F08A50082314D22853144
:100A70002000A9002908AE00672D3008F1002F08DA
:100A8000F0008B31E1238531003A0319482D492DBF
:100A9000842D20004408031D4E2D4F2D562D300867
:100AA000F1002F08F0008C31BE2485312000300881
:100AB000F1002F08F0008B318F23853120002D08A5
:100AC000A9002908F0008B3156238531842D2E088A
:100AD000A900AA01A91BAA032A08003A0319742D28
:100AE000FF3A0319792D842D2908003A03193D2D69
:100AF000842D2908FD3A0319842D033A0319842D06
:100B0000013A0319842D842D20002E0808002000AE
:100B100026088600270887004A31403FA800413F49
:100B2000A90003302902E83003192802031C992D7B
:100B30009A2DAF2D260886002708870001088131ED
:100B4000B02185312000260886002708870001088B
:100B5000A8002808F0008B3154238531FD2D26088C
:100B600086002708870049310108803AA800260836
:100B70008600270887004E31260884002708850054
:100B80000E310008A90026088400270885001031CE
:100B9000000ACB2DA936890BCA2D29080102803AFB
:100BA000A8020318D42DD52DFD2D2608023EA8003D
:100BB0000030273DA9002808860029088700013059
:100BC000810026088600270887004A310030C03F90
:100BD000C13F26088600270887004C31FF30C03F00
:100BE000FB30C13F26088600270887000108A800BF
:100BF0002808F0008B3154238531080070088600E6
:100C0000710887004531403FF200413FF300423F09
:100C1000F400433FF5000430F536F40CF30CF20C0D
:100C2000890B0C2E70088600710887004331403F05
:100C3000F600413FF7007608F8007708F900FA015E
:100C4000FB017208F8027308F93B7408FA3B750857
:100C5000FB3B7B082000A3007A08A2007908A100D2
:100C60007808A0002008F2002108F3002208F40010
:100C70002308F50070088600710887004F31010ACB
:100C8000452EF537F40CF30CF20C890B412E750848
:100C9000A3007408A2007308A1007208A000A31B9F
:100CA0005F2E2308031D602E2208031D602E2108DD
:100CB000031D602E80302002031C5F2E602E682EE4
:100CC0000030A3000030A2000030A1007F30A0005F
:100CD000A31F752E80302002FF30213BFF30223BC6
:100CE000FF30233B0318752E762E7E2EFF30A30097
:100CF000FF30A200FF30A1008030A0007008093E44
:100D0000F2000030713DF30072088600730887001E
:100D10002008810008008B1F8E2E8F2ED62E8B135D
:100D200070088600710887004531403FF200413F5E
:100D3000F300423FF400433FF5000430F536F40C75
:100D4000F30CF20C890B9E2E700886007108870048
:100D500045317208810241317308813B4131740889
:100D6000813B41317508813B7D31700886007108F7
:100D700087004331403FF200413FF3007208F40026
:100D80007308F500F601F701700886007108870006
:100D900045317408810741317508813D413176083C
:100DA000813D41317708813D8B171A2F70088600ED
:100DB000710887004531403FF200413FF300423F58
:100DC000F400433FF5000430F536F40CF30CF20C5C
:100DD000890BE42E7008860071088700453172087F
:100DE000810241317308813B41317408813B4131BB
:100DF0007508813B7D31700886007108870043319A
:100E0000403FF200413FF3007208F4007308F50020
:100E1000F601F701700886007108870045317408F3
:100E2000810741317508813D41317608813D41316D
:100E30007708813D080020002608860027088700E3
:100E400049310108803AA800260886002708870053
:100E50004E310103FF3A803AA8020318302F312F98
:100E60005E2F26088600270887004A310130810757
:100E700041310318810A26088600270887004A3175
:100E8000403FA800413FA90000302902413003192A
:100E90002802031C4C2F4D2FA22F2608860027085E
:100EA00087004A310030C03FC13F2608860027082E
:100EB000870001088131B0218731A22F26088600E2
:100EC0002708870049310108A800A901A81BA90328
:100ED00026088600270887004E312908803A803C82
:100EE000031D742F280801020318772F782F992FDC
:100EF00020002608023EA8000030273DA90028084F
:100F0000860029088700023081002608860027080D
:100F100087004A310030C03FC13F260886002708BD
:100F200087000108A8002808F0008B31542387317E
:100F3000A22F200026088600270887004A310030AB
:100F4000C03FC13F200026088600270887004C319B
:100F50000130810741310318810A260886002708DD
:100F600087004C311600403AA8001600A804031D63
:100F7000BA2FBB2FCA2F26088600270887004C31BE
:100F80000030C03FC13F2708F1002608F00086313D
:100F90008B2687310800A2308400823085006C30B7
:100FA0008600203087000030FF005A308B31B82394
:100FB0008731013084008C3085004C308600003051
:100FC00087000030FF0010308B31B8238731C630E6
:100FD000840020308500AA30FE000030FF008B31F5
:100FE000AC23873137308400003085001530FE0097
:100FF0000030FF008B31AC23873120008331CA2BB6
:101000000034003400340034003400340034003440
:1010100000340034003400340034003464340434C8
:10102000023401340134003400340034003400341C
:1010300000340034003400340034003400346434AC
:1010400004340234023402340034003400340034F6
:1010500000340034003400340034003400340034F0
:101060006434043402340334033400340034003470
:1010700000340034003400340034003400340034D0
:10108000003464340434023404340434003400344E
:1010900000340034003400340034003400340034B0
:1010A000003400346434043402340534053400342C
:1010B0000034003400340034003400340034003490
:1010C000003400340034643404340234063406340A
:1010D0000034003400340034003400340034003470
:1010E00000340034003400346434043402340734EF
:1010F0000734003400340034003400340034003449
:1011000000340034003400340034643404340234D5
:10111000083408340034003400340034003400341F
:1011200000340034003400340034003464340434B7
:1011300002340934093400340034003400340034FB
:1011400000340034003400340034003400343234CD
:04115000043402342D
:1016A80008000800080001300800003008008031F8
:1016B80082208B3108001630210097000800210095
:1016C8009D01A0309E00080071082000B800700835
:1016D800B700080071082000BC007008BB000800B3
:1016E80071082000BA007008B90008007608860062
:1016F8007708870048318110080070088600710853
:1017080087004831011508007008860071088700B5
:1017180048310111080070088600710887004831B7
:1017280081140800F0002000111E9B2B9C2B972B86
:10173800700823009A000800703021009900980171
:101748002200960121001A1FAA2BAB2BA62B0800FA
:101758006400800101310130FE020030FF3B7F0848
:101768007E04031DAD2B0034FE0012001E00013064
:10177800FE020030FF3B7F087E04031DB92B0034B6
:101788008B31D1238B318F3179278B3181315421A2
:101798008B318B3163238B310800FD017D088F313C
:1017A800DD278B310130FC007C08FD070A307D0203
:1017B800031CDF2BE02BD22B0800700871040319DF
:1017C800E62BE72BEF2B700886007108870048315D
:1017D80001080139F02B003008008C3123248B31AB
:1017E8008B31A0238B318B315F238B318F31BB271A
:1017F8008B318B31C4238B310800A53404341B345E
:1018080007348734053454340B3454340B34593486
:101818000E3419340D3456340B342000B301330818
:10182800843135248C310130FD007D082000B30758
:101838000A303302031C212C222C132C080022000E
:101848008C018D0121008C018D0123008D018C01FB
:1018580024008D018C012100951722009D019E0115
:10186800080020004508F0007008F1007108031D09
:101878003E2C3F2C402C472C0130F1027108031DEF
:10188800462C472C402C08007008860071088700F9
:101898004131403F2000D800413FD9007008860000
:1018A800710887004331403FD600413FD700080008
:1018B80020004B1C602C612C662C4B36F000700805
:1018C800CB006F2C4B36F0007008CB004B08B43AB5
:1018D800F0007008CB004B080F3908008B1F752CDF
:1018E800762C812C8B1320002508A1002408A00049
:1018F8008131F8218C318B17892C20002508A10013
:101908002408A0008131F8218C3108007108803A40
:10191800F20080307202031D932C0130700203180C
:10192800962C972CA32C7009F2007109F300F20A87
:101938000319F30A7208F0007308F100A32C0800D9
:101948002000B2013208853116258C31003A03197E
:10195800AE2CAF2CB12C0030BD2C01302000B100D2
:101968003108B2070A303202031CBB2CBC2CA62C4F
:10197800013008008B1FC12CC22CCF2C8B13700890
:10198800860071088700463120003D08C03F3E08A8
:10199800C13F8B17D92C7008860071088700463123
:1019A80020003D08C03F3E08C13F0800F401F50192
:1019B800701CDF2CE02CE42C7208F4077308F53D4A
:1019C8000130F235F30D890BE52C0130F136F00CBE
:1019D800890BEA2C70087104031DF32CF42CDC2C01
:1019E8007508F1007408F000080022000D172100A6
:1019F80015309D000530890BFF2C00008D308400C8
:101A0800003085000D3086000130870019308017BE
:101A18009D00003200320032003221009D14003255
:101A2800000022008D178013080022008D17210066
:101A380019309D000530890B1F2D00008C30840063
:101A4800003085000C30860001308700013000141A
:101A58009D00003200320032003221009D14003215
:101A6800000022000C140010080022000C142100B1
:101A780001309D000530890B3F2D00008C3084001B
:101A8800003085000C308600013087000530801456
:101A98009D00003200320032003221009D140032D5
:101AA800000022008C148010080022008C142100F1
:101AB80005309D000530890B5F2D00008C308400B7
:101AC800003085000C308600013087000930001591
:101AD8009D00003200320032003221009D14003295
:101AE800000022000C150011080022000C1521002E
:101AF80009309D000530890B7F2D00008C30840053
:101B0800003085000C308600013087001130001647
:101B18009D00003200320032003221009D14003254
:101B2800000022000C160012080022000C162100EA
:101B380011309D000530890B9F2D00008D308400E9
:101B4800003085000D308600013087002D3080146C
:101B58009D00003200320032003221009D14003214
:101B6800000022008D148010080022008D1421002E
:101B78002D309D000530890BBF2D00008D3084006D
:101B8800003085000D308600013087002530801533
:101B98009D00003200320032003221009D140032D4
:101BA800000022008D158011080022008D152100EB
:101BB80025309D000530890BDF2D00008D30840015
:101BC800003085000D308600013087002130001676
:101BD8009D00003200320032003221009D14003294
:101BE800000022000D160012080022000D16210028
:101BF80021309D000530890BFF2D00008D308400B9
:101C0800003085000D308600013087001D308016B9
:101C18009D00003200320032003221009D14003253
:101C2800000022008D168012080022008D16210067
:101C38001D309D000530890B1F2E00008D3084005B
:101C4800003085000D308600013087001530001700
:101C58009D00003200320032003221009D14003213
:101C6800000022000D170013080022000D132100A8
:101C780015309D000530890B3F2E00008D30840003
:101C8800003085000D30860001308700193080173C
:101C98009D00003200320032003221009D140032D3
:101CA800000022008D138013080022008D132100EC
:101CB80019309D000530890B5F2E00008C308400A0
:101CC800003085000C308600013087000130001498
:101CD8009D00003200320032003221009D14003293
:101CE800000022000C100010080022000C10210037
:101CF80001309D000530890B7F2E00008C30840058
:101D0800003085000C3086000130870005308014D3
:101D18009D00003200320032003221009D14003252
:101D2800000022008C108010080022008C10210076
:101D380005309D000530890B9F2E00008C308400F3
:101D4800003085000C30860001308700093000150E
:101D58009D00003200320032003221009D14003212
:101D6800000022000C110011080022000C112100B3
:101D780009309D000530890BBF2E00008C3084008F
:101D8800003085000C3086000130870011300016C5
:101D98009D00003200320032003221009D140032D2
:101DA800000022000C120012080022000C12210070
:101DB80011309D000530890BDF2E00008D30840026
:101DC800003085000D308600013087002D308014EA
:101DD8009D00003200320032003221009D14003292
:101DE800000022008D108010080022008D102100B4
:101DF8002D309D000530890BFF2E00008D308400AA
:101E0800003085000D3086000130870025308015B0
:101E18009D00003200320032003221009D14003251
:101E2800000022008D118011080022008D11210070
:101E380025309D000530890B1F2F00008D30840050
:101E4800003085000D3086000130870021300016F3
:101E58009D00003200320032003221009D14003211
:101E6800000022000D120012080022000D122100AD
:101E780021309D000530890B3F2F00008D308400F4
:101E8800003085000D308600013087001D30801637
:101E98009D00003200320032003221009D140032D1
:101EA800000022008D128012080022008D122100ED
:101EB8001D309D000530890B5F2F00008D30840098
:101EC800003085000D30860001308700153000177E
:101ED8009D00003200320032003221009D14003291
:101EE800000022000D1300130800C630F000203057
:101EF800F1000030F2008830F300AA30F40000301E
:101F0800F500813128218F312000A001200881317E
:101F1800B0218F310130FD007D082000A0070A3074
:101F28002002031C982F992F8A2F0800FA000A30E4
:101F38007A020318A02FA12FBA2F7A08F600F7010A
:101F48007608F0007708F1000930F2000030F3005D
:101F58008C31DA248F317430F8002030F9007008A1
:101F6800780786007108793D870001140800083059
:101F780023009F0080309D0024309E008A309B0003
:101F88009C010030F0000030F1008B316E238F315E
:101F98000030F0000030F1008B3174238F310030B5
:101FA800F0000030F1008B3168238F312000C3012D
:101FB8000800FB007B088F319A278F317B082000AF
:101FC800A000A1012008F0002108F1000930F2006A
:101FD8000030F3008C31DA248F316C302000A200FD
:101FE8002030A30070082207F6007108233DF7008F
:081FF8008B317A238F310800C0
:020000040001F9
:04000E00E43DFF3F8F
:00000001FF
