:0400000080311C2807
:100008007E1480318B1A0B1D0D2884318D2480318C
:100018001A280B1F1A282100911E1A282000911E49
:100028001A2845088A0044080A0080317E10090011
:1000380080311E28A7308400843085005630860021
:10004800003087000A308431CA248031703084003F
:100058000030850008308431D0248031203084007D
:10006800003085002B308431D0247E10200083316D
:100078004C2B7F347C3479347734743471346F3456
:100088006D346A3468346634643461345F345D34A2
:100098005B345934573455345434523450344E3414
:1000A8004D344B344934483446344534433442346F
:1000B80040343F343E343C343B343A3438343734BB
:1000C8003634353434343334323430342F342E34F7
:1000D8002D342C342B342A342A3429342834273428
:1000E800263425342434243423342234213421344E
:1000F80020341F341F341E341D341D341C341B346B
:100108001B341A341A341934193418341734173480
:100118001634163415341534153414341434133491
:10012800133412341234123411341134103410349C
:1001380010340F340F340F340E340E340E340D34A3
:100148000D340D340D340C340C340C340B340B34A6
:100158000B340B340A340A340A340A340A340934A6
:1001680009340934093409340834083408340834A3
:10017800083407340734073407340734073406349F
:100188000634063406340634063406340534053499
:100198000534053405340534053405340534043490
:1001A8000434043404340434043404340434043487
:1001B800043403340334033403340334033403347E
:1001C8000334033403340334033403340234023471
:1001D8000234023402340234023402340234023467
:1001E8000234023402340234023402340234023457
:1001F800023401340134013401340134013401344E
:10020800013401340134013401340134013401343E
:10021800013401340134013401340134013401342E
:10022800013401340134013401340134013401341E
:100238000134003400340034003400340034003415
:100248000034003400340034003400340034003406
:1002580000340034003400340034003400340034F6
:1002680000340034003400340034003400340034E6
:1002780000347F348234853488348B348E3491341E
:10028800943498349B349E34A134A434A734AA34CB
:10029800AD34B034B334B534B834BB34BE34C134FF
:1002A800C334C634C834CB34CE34D034D234D53445
:1002B800D734D934DB34DE34E034E234E434E634A1
:1002C800E734E934EB34ED34EE34F034F134F2341D
:1002D800F434F534F634F734F834F934FA34FB34BA
:1002E800FC34FC34FD34FD34FE34FE34FE34FE347C
:1002F800FE34FE34FE34FE34FE34FE34FD34FD3468
:10030800FC34FC34FB34FA34FA34F934F834F73476
:10031800F634F434F334F234F034EF34ED34EC34AE
:10032800EA34E834E734E534E334E134DF34DD3407
:10033800DA34D834D634D434D134CF34CC34CA3483
:10034800C734C534C234BF34BC34BA34B734B43417
:10035800B134AE34AB34A834A534A2349F349C34C1
:1003680099349634933490348D348A348634833473
:1003780080347D347A347734733470346D346A342D
:100388006734643461345E345B34583455345234E1
:100398004F344C3449344634433441343E343B348E
:1003A80038343634333431342E342C342934273429
:1003B8002534233420341E341C341A3418341634AB
:1003C80015341334113410340E340D340B340A340C
:1003D800093407340634053404340334033402344E
:1003E8000134013400340034003400340034003463
:1003F8000034003400340034003400340034003455
:100408000134013402340334043405340634073427
:10041800083409340B340C340D340F3410341234CE
:1004280014341634173419341B341D341F34223451
:100438002434263428342B342D342F3432343534B4
:1004480037343A343C343F344234453448344A34FF
:100458004D3450345334563459345C345F34623438
:10046800653469346C346F347234753478347B3461
:100478007E342000BC01BD01740803197E2A72086D
:100488003D3E840081300318013E85000008CB0002
:100498004B08F3003A083B04031D6A2A71083D3EE5
:1004A800840080300318013E85000008CB004B080B
:1004B800C9000130CB004B08F1073908BB003808E8
:1004C800BA00710A031D6E2AF4016E2A0130BA02BD
:1004D8000030BB3B4708CB004B08C8074608CB0099
:1004E800CC014B08B6074C08B73D37084807CB0086
:1004F8004B08F2007308CB00CC014B08F8004C08FD
:10050800F9004908CD00CE014D08FA004E08FB005D
:1005180084312624823178082000CF007908D00061
:100528000730D100500DD00CCF0CD10B962A4F08B4
:10053800BC005008BD003C082500910008008F341D
:100548009734A034A934B434BE34C934D534E23431
:10055800EF34FE340E341E342F34403453346834B0
:100568007D349334AB34C534DF34FC341B343B3432
:100578005D348034A634CF34F934273457348A3480
:10058800BF34F83435347534B93401344D349E34BD
:10059800F3344E34AE3414347F34F1346A34EA34EC
:1005A800723402349A343C34E6349C345C34283453
:1005B800FE34E234D434D534E43404343534773476
:1005C800CD343834B7344F34FD3486346834AA34E3
:1005D8007F3408346934EE349B3470346F349D347E
:1005E800FA348B3453345434003400340034003437
:1005F8000034003400340034003400340134013451
:10060800013401340134013401340134013401343A
:100618000134013402340234023402340234023424
:100628000234033403340334033403340434043409
:1006380004340534053405340534063406340734E7
:10064800073407340834083409340A340A340B34BC
:100658000B340C340D340E340E340F341034113482
:100668001234143415341634173419341A341C342B
:100678001D341F3421342334253428342A342C34AF
:100688002F343234353438343B343F3443344734F0
:100698008431572483318B170B172000B201B30123
:1006A800B001B101F401F101BA01BB01C801B60101
:1006B800B7012C30B8000130B9008431C32483312C
:1006C800003A0319612B8331E42383312000D400DD
:1006D8005408D50061305502031C612B6B3055025C
:1006E8000318612B5508F53E8600870101088431FF
:1006F80008248331612B21009112B2302000D200EE
:100708000330D3008431DC248331083023009F0078
:1007180090309D0004309E008A309B009C01FF3081
:100728002000D2000430D3008431E8248331F8302B
:100738002000D2000430D3008431E2248331FC301D
:100748002000D2000430D3008431EE242000CA01F6
:10075800F701F601F5012100911608007708203EFF
:1007680086008701810123001D1DC52B7708203EC7
:10077800860087018114200043088A0042080A0085
:10078800833123009D1CD32B7708203E86008701E8
:100798000115200041088A0040080A0083317708C3
:1007A800203E8600870101080319E12B20003F083D
:1007B8008A003E080A008331080084314124080079
:1007C80075080319E42B7608203E86008701010886
:1007D8002000D2005208CA007608283E8600870109
:1007E8000108D2005208D3000130D2005208F6079F
:1007F800083076020318F601210091120130F50243
:1008080091162000530808002000D3005308F83E32
:10081800840082300318013E85000008D200520887
:10082800C7005308A33E840082300318013E8500A8
:100838000008D2005208C600F101BA01BB01F40158
:10084800F40A0800FC01FD01781C2E2C7A08FC072C
:100858007B08FD3D0130FA35FB0D890B2F2C01304B
:10086800F936F80C890B342C78087904031D282CE8
:100878007D08F9007C08F800080023001908F80032
:100888007708283E86008701780881000130F80043
:100898007808F707083077020318F7010130F800E5
:1008A8007808F507080084317D2484318431B12427
:1008B80084318431F424843184319B24843184311B
:1008C800BB24843184316C24843183317F23080034
:1008D80021001508C0391038950020009501F00155
:1008E8000B118B163D30D2000230D3008431D62450
:1008F800080022008C013B3021008C0013302300BB
:100908008C0024008C0121009517803022009D0066
:1009180008000B11700820009500340835040319ED
:10092800080035088A0034080A00843108003C3081
:1009380025009300950181309400013096009201C2
:100948003F30910008004234443446344734493437
:100958004B344D344E3450345234703021009900A9
:1009680098012200960121001A1B0800B72C3F307D
:1009780020009B009A01911004309C000800750823
:100988000319C82C0130080000300800FE001200CE
:100998001E00FE0BCB2C0034640080010131890B52
:1009A800D12C003420005308B5005208B4000800C8
:1009B80020005308C5005208C4000800200053084E
:1009C800C1005208C000080020005308C3005208A4
:1009D800C200080020005308BF005208BE000800EB
:1009E800163021009700080023001D121D1608006C
:0809F8008431412408000800CD
:020000040001F9
:04000E00E439FF1FB3
:00000001FF
