:040000008031B4286F
:100008007E1480312000911E0A280B2840282300E6
:100018001908F60076082000BD002408013EF60005
:100028000030253DF70003307605BE000030770527
:10003800BF0027083F06031D232826083E0603198C
:100048002628272833283D08F6002408203E860065
:100058008701760881003F08A5003E08A400230018
:100068009D1C372838283E281D129D183C283D28FD
:1000780039281D16200091120B1D43284428B22848
:10008800B401B5013C0803194A284B288D283608C5
:10009800CE3E840081300318013E85000008F6003A
:1000A8007608BB0032083304031D5B285C287628D9
:1000B8003A08CE3E840080300318013E85000008CF
:1000C800F6007608B9000130F6007608BA07290864
:1000D800B3002808B2003A0A031D732874287A2846
:1000E800BC017A280130B2020030B33B3808F60070
:1000F800F7017608B0077708B13D3708F600F70131
:100108007608AE077708AF3D2F083007F600760867
:10011800B6003B08F600F7017608F0007708F10012
:100128003908F800F9017808F2007908F3008431F9
:10013800402480317008FA007108FB000730FC0089
:100148007B0DFB0CFA0CFC0BA4287A082000B400E9
:100158007B08B5003408250091000B117E100900BA
:100168008031B6289130840084308500493086007B
:10017800003087000A3084319B248031203084008D
:10018800003085001D308431A12480317E1020008C
:100198008231CE2A7F347C347934773474347134A4
:1001A8006F346D346A3468346634643461345F346F
:1001B8005D345B34593457345534543452345034E4
:1001C8004E344D344B344934483446344534433442
:1001D800423440343F343E343C343B343A3438348F
:1001E80037343634353434343334323430342F34CD
:1001F8002E342D342C342B342A342A342934283400
:100208002734263425342434243423342234213426
:10021800213420341F341F341E341D341D341C3443
:100228001B341B341A341A3419341934183417345B
:10023800173416341634153415341534143414346C
:100248001334133412341234123411341134103478
:10025800103410340F340F340F340E340E340E347F
:100268000D340D340D340D340C340C340C340B3483
:100278000B340B340B340A340A340A340A340A3483
:100288000934093409340934093408340834083481
:10029800083408340734073407340734073407347C
:1002A8000634063406340634063406340634053477
:1002B800053405340534053405340534053405346E
:1002C8000434043404340434043404340434043466
:1002D800043404340334033403340334033403345C
:1002E800033403340334033403340334033402344F
:1002F8000234023402340234023402340234023446
:100308000234023402340234023402340234023435
:10031800023402340134013401340134013401342B
:10032800013401340134013401340134013401341D
:10033800013401340134013401340134013401340D
:1003480001340134013401340134013401340134FD
:1003580001340134003400340034003400340034F3
:1003680000340034003400340034003400340034E5
:1003780000340034003400340034003400340034D5
:1003880000340034003400340034003400340034C5
:1003980000340034003402340434063408340A3497
:1003A8000C340E34103412341434163418341A340D
:1003B8001C341E34203422342434263428342A347D
:1003C8002C342E34303432343434363438343A34ED
:1003D8003C343E34403442344434463448344A345D
:1003E8004C344E34503452345434563458345A34CD
:1003F8005C345E34603462346434663468346A343D
:100408006C346E34703472347434763478347A34AC
:100418007C347E34803482348434863488348A341C
:100428008C348E34903492349434963498349A348C
:100438009C349E34A034A234A434A634A834AA34FC
:10044800AC34AE34B034B234B434B634B834BA346C
:10045800BC34BE34C034C234C434C634C834CA34DC
:10046800CC34CE34D034D234D434D634D834DA344C
:10047800DC34DE34E034E234E434E634E834EA34BC
:10048800EC34EE34F034F234F434F634F834FA342C
:10049800FC34FE34FC34FA34F834F634F434F234F0
:1004A800F034EE34EC34EA34E834E634E434E2345C
:1004B800E034DE34DC34DA34D834D634D434D234CC
:1004C800D034CE34CC34CA34C834C634C434C2343C
:1004D800C034BE34BC34BA34B834B634B434B234AC
:1004E800B034AE34AC34AA34A834A634A434A2341C
:1004F800A0349E349C349A3498349634943492348C
:1005080090348E348C348A348834863484348234FB
:1005180080347E347C347A3478347634743472346B
:1005280070346E346C346A346834663464346234DB
:1005380060345E345C345A3458345634543452344B
:1005480050344E344C344A344834463444344234BB
:1005580040343E343C343A3438343634343432342B
:1005680030342E342C342A3428342634243422349B
:1005780020341E341C341A3418341634143412340B
:1005880010340E340C340A3408340634043402347B
:100598000034003470302100990022008C01203092
:1005A80021008C0022008C0102302000C0000030A5
:1005B800C1000330C2000030C3002230C600460824
:1005C800C40084311524823123008C0122001D10BF
:1005D8000C302500930020009C0125009101920118
:1005E80020009A01FF309B001C1521009501200076
:1005F80095018B120B118B168B17AC01AD01AA015B
:10060800AB01BC01BA01B201B301B001B101AE0145
:10061800AF012C30A8000130A90084317D2482313B
:1006280020004008410403191A2B1B2B112B83317E
:10063800E923823120004108C8004008C700003083
:100648004802613003194702031C2B2B2C2B112B5A
:10065800003048026B30031947020318342B352B3E
:10066800112B4708E83E86008701010884315F2482
:100678008231112B8031B4288F349734A034A934B7
:10068800B434BE34C934D534E234EF34FE340E34D5
:100698001E342F344034533468347D349334AB34AF
:1006A800C534DF34FC341B343B345D348034A63429
:1006B800CF34F934273457348A34BF34F8343534D6
:1006C8007534B93401344D349E34F3344E34AE3479
:1006D80014347F34F1346A34EA34723402349A348C
:1006E8003C34E6349C345C342834FE34E234D4346C
:1006F800D534E434043435347734CD343834B7342D
:100708004F34FD3486346834AA347F34083469346D
:10071800EE349B3470346F349D34FA348B34533454
:1007280054340034003400340034003400340034CD
:10073800003400340034013401340134013401340C
:1007480001340134013401340134013401340234F8
:1007580002340234023402340234023403340334DF
:1007680003340334033404340434043405340534C2
:10077800053405340634063407340734073408349E
:10078800083409340A340A340B340B340C340D346D
:100798000E340E340F34103411341234143415342A
:1007A8001634173419341A341C341D341F342134C8
:1007B8002334253428342A342C342F343234353435
:1007C80038343B343F344334473420002508270667
:1007D800031DF02B24082606031DF32BF42BF92BFD
:1007E800FF30C000FF30C100142C2608203E8600D0
:1007F80087010108C200C3014208C4004308C500BC
:100808002608013EC2000030273DC30003304205E0
:10081800A60000304305A7004508C1004408C000F1
:10082800080022009D131D110230200040064104DB
:10083800031D1F2C202C222C22009D170330200082
:1008480042064304031D292C2A2C2C2C22001D159A
:10085800243023009E0090309D002000440823008F
:100868009B0020009112210091160B172000A60171
:10087800A701A401A5010800F401F501701C452C8D
:10088800462C4A2C7208F4077308F53D0130F235FE
:10089800F30D890B4B2C0130F136F00C890B502CE1
:1008A80070087104031D592C5A2C422C7508F1004C
:1008B8007408F00008002000C1004108953E84003B
:1008C80083300318013E85000008C0004008B800C6
:1008D8004108403E840083300318013E850000082B
:1008E800C0004008B700BA01B201B301BC01BC0A9C
:1008F8000800200026082402C2002708253BC30060
:100908004208043EC4000030433DC500033044059E
:10091800C00000304505C100080042344434463464
:10092800473449344B344D344E3450345234FE003D
:1009380012001E00FE0B9C2C003464008001013163
:06094800890BA22C003413
:00000001FF
